:100000000C9446000C9465000C9465000C946500FB
:100010000C9465000C9465000C9465000C946500CC
:100020000C9465000C9465000C9465000C946500BC
:100030000C9465000C94DE000C9465000C94650033
:100040000C9465000C9465000C9465000C9465009C
:100050000C9465000C9465000C9465000C9465008C
:100060000C9465000C9465000C9465000C9465007C
:100070000C9465000C9465000C9465000C9465006C
:100080000C9465000C9465000C94650011241FBE4F
:10009000CFEFD0E4DEBFCDBF12E0A0E0B1E0ECE2F4
:1000A000F9E000E00BBF02C007900D92AE32B1073D
:1000B000D9F722E0AEE2B2E001C01D92AA33B20746
:1000C000E1F70E94D2020C9494040C940000CF93A8
:1000D000DF9300D01F92CDB7DEB789837B836A831D
:1000E00089818A3031F48A819B81BC018DE00E9434
:1000F000670080EC90E0FC018081882F90E08072A6
:100100009927892BB1F386EC90E02981FC012083AB
:1001100080E090E00F900F900F90DF91CF910895C5
:10012000CF93DF93CDB7DEB781E890E02BE0FC0101
:10013000208388E890E02DE730E0FC0131832083C4
:100140008FE690E022E0FC01208384E890E0FC014F
:100150001182108280910E0190910F01A0911001E7
:10016000B091110180932F0290933002A09331023D
:10017000B09332028FE590E02FE530E0F901208165
:100180002068FC0120830000DF91CF910895CF9378
:10019000DF93CDB7DEB781E890E0FC01108200006C
:1001A000DF91CF910895CF93DF93CDB7DEB781E094
:1001B00080932E020000DF91CF9108951F920F923D
:1001C00000905F000F92112400905B000F922F931C
:1001D0003F934F935F936F937F938F939F93AF93CF
:1001E000BF93EF93FF93CF93DF93CDB7DEB78091AB
:1001F0002F0290913002A0913102B091320201970A
:10020000A109B10980932F0290933002A09331028B
:10021000B093320280912F0290913002A09131026E
:10022000B0913202892B8A2B8B2B91F40E94D30040
:1002300080910E0190910F01A0911001B0911101D8
:1002400080932F0290933002A0933102B093320238
:100250000000DF91CF91FF91EF91BF91AF919F91FE
:100260008F917F916F915F914F913F912F910F905F
:1002700000925B000F9000925F000F901F90189506
:10028000CF93DF9300D000D0CDB7DEB769837A83F8
:100290008B839C8389819A81AB81BC8180930E0181
:1002A00090930F01A0931001B093110180910E0162
:1002B00090910F01A0911001B091110180932F0234
:1002C00090933002A0933102B093320200000F905D
:1002D0000F900F900F90DF91CF9108950F931F9380
:1002E000CF93DF9300D000D0CDB7DEB769837A8398
:1002F0008B839C838091340290913502A0913602C9
:10030000B09137029C01AD0169817A818B819C811A
:100310000E940003882309F477C020E030E0A9019F
:1003200069817A818B819C810E940003882351F42A
:1003300081E990E021E930E0F90120812870FC0199
:10034000208309C081E990E021E930E0F9012081B2
:100350002360FC01208328E539E344E75FE36981FA
:100360007A818B819C810E940003882344F488E970
:1003700090E02FEF3FEFFC013183208334C020E079
:1003800034E244EF56E469817A818B819C810E943A
:100390002204181634F488E990E0FC0111821082DE
:1003A00022C008E910E020E030E040E053E4698139
:1003B0007A818B819C810E942704DC01CB019C0106
:1003C000AD0160E074E284EF9AE40E940503DC0171
:1003D000CB01BC01CD010E947703DC01CB01019769
:1003E000F8019183808384E990E0FC0111821082FE
:1003F00089819A81AB81BC818093340290933502CC
:10040000A0933602B093370200000F900F900F9028
:100410000F90DF91CF911F910F910895CF93DF93AC
:10042000CDB7DEB780E990E020E4FC01208381E9CC
:1004300090E02BE0FC01208360E070E0CB010E94A3
:100440006E010000DF91CF910895CF93DF93CDB778
:10045000DEB780E990E0FC01108281E990E0FC01C8
:1004600010820000DF91CF910895CF93DF93CDB735
:10047000DEB780913802909139028130910581F088
:100480008130910530F08230910521F10397A1F17F
:100490004DC081E090E0909339028093380246C0CD
:1004A00080E290E0FC018081882F90E0809590951B
:1004B00087709927049739F482E090E0909339028D
:1004C0008093380233C081E090E0909339028093AA
:1004D00038022CC080913302863438F482E090E0F8
:1004E000909339028093380221C083E090E090938A
:1004F0003902809338021AC080E290E0FC018081CA
:10050000882F90E08095909587709927049739F40B
:1005100083E090E0909339028093380206C081E036
:1005200090E0909339028093380200008091380265
:10053000909139028130910549F08130910568F13F
:100540008230910559F0039711F128C060E070E006
:10055000CB010E946E011092330220C080913302C1
:10056000882F90E0880F991F880F991F8E5E9E4FED
:10057000FC0180819181A281B381BC01CD010E94E7
:100580006E01809133028F5F8093330207C060E079
:1005900070E0CB010E946E0101C000000000DF91FD
:1005A000CF910895CF93DF93CDB7DEB781E290E08E
:1005B000FC01108282E290E02FEFFC01208384E2B4
:1005C00090E02FEFFC01208385E290E0FC01108297
:1005D0000E940E026AEA70E080E090E00E94400112
:1005E0000E94900010923902109238020E94350247
:1005F000000080912E028823E1F310922E02F6CFA4
:100600000E94AD0308F481E008950E9419030C9440
:10061000E8030E94E10358F00E94DA0340F029F455
:100620005F3F29F00C94D10351110C941C040C94DD
:10063000D7030E94F90368F39923B1F3552391F38B
:10064000951B550BBB27AA2762177307840738F041
:100650009F5F5F4F220F331F441FAA1FA9F335D09E
:100660000E2E3AF0E0E832D091505040E695001C52
:10067000CAF72BD0FE2F29D0660F771F881FBB1F0C
:10068000261737074807AB07B0E809F0BB0B802DEA
:10069000BF01FF2793585F4F3AF09E3F510578F016
:1006A0000C94D1030C941C045F3FE4F3983ED4F304
:1006B000869577956795B795F7959F5FC9F7880FEA
:1006C000911D9695879597F90895E1E0660F771F3C
:1006D000881FBB1F621773078407BA0720F0621BCD
:1006E000730B840BBA0BEE1F88F7E09508950E94F8
:1006F0007E036894B1110C941C0408950E940104B7
:1007000088F09F5798F0B92F9927B751B0F0E1F0D2
:10071000660F771F881F991F1AF0BA95C9F714C082
:10072000B13091F00E941B04B1E008950C941B04B9
:10073000672F782F8827B85F39F0B93FCCF38695BB
:1007400077956795B395D9F73EF490958095709518
:1007500061957F4F8F4F9F4F0895990F0008550F58
:10076000AA0BE0E8FEEF16161706E807F907C0F037
:1007700012161306E407F50798F0621B730B840B3F
:10078000950B39F40A2661F0232B242B252B21F419
:1007900008950A2609F4A140A6958FEF811D811DB9
:1007A000089597F99F6780E870E060E008959FEFF3
:1007B00080EC089500240A941616170618060906F8
:1007C000089500240A9412161306140605060895C7
:1007D000092E0394000C11F4882352F0BB0F40F44F
:1007E000BF2B11F460FF04C06F5F7F4F8F4F9F4F8F
:1007F000089557FD9058440F551F59F05F3F71F011
:100800004795880F97FB991F61F09F3F79F0879577
:100810000895121613061406551FF2CF4695F1DF00
:1008200008C0161617061806991FF1CF8695710590
:10083000610508940895E894BB2766277727CB01C4
:1008400097F908950E94AD0308F48FEF08950E9470
:100850003A040C94E8030E94DA0338F00E94E103A2
:1008600020F0952311F00C94D1030C94D70311249C
:100870000C941C040E94F90370F3959FC1F3950F2B
:1008800050E0551F629FF001729FBB27F00DB11D14
:10089000639FAA27F00DB11DAA1F649F6627B00DA4
:1008A000A11D661F829F2227B00DA11D621F739F8D
:1008B000B00DA11D621F839FA00D611D221F749F9B
:1008C0003327A00D611D231F849F600D211D822FE2
:1008D000762F6A2F11249F5750409AF0F1F0882309
:1008E0004AF0EE0FFF1FBB1F661F771F881F915036
:1008F0005040A9F79E3F510580F00C94D1030C9411
:100900001C045F3FE4F3983ED4F386957795679592
:10091000B795F795E7959F5FC1F7FE2B880F911D5F
:0C0920009695879597F90895F894FFCFFD
:10092C000000000200000000670000000000010051
:10093C000000A4D0824300000000A4D08243000039
:10094C0000007BD492437BD4924300000000A4D0DF
:10095C008243A4D0824300000000719DAE43719D80
:10096C00AE4300000000A4D0A443A4D0A443A4D060
:10097C00A44300000000A4D0824300000000A4D0D7
:10098C008243000000007BD492437BD4924300004E
:10099C000000A4D08243A4D08243000000000000D9
:1009AC00C4430000C44300000000719DAE43719D20
:1009BC00AE43719DAE4300000000A4D08243000002
:1009CC000000A4D08243000000000000034400009B
:1009DC000344000000000000DC430000DC43000086
:1009EC000000719DAE43719DAE4300000000A4D089
:1009FC00A443A4D0A443000000007BD492437BD436
:100A0C009243000000007B14E943000000007B14BB
:100A1C00E943000000000000DC430000DC43000060
:100A2C000000719DAE43719DAE43000000000000BC
:100A3C00C4430000C44300000000719DAE43719D8F
:0E0A4C00AE43719DAE43719DAE4300000000AD
:00000001FF
