:100000000C9446000C9465000C9465000C946500FB
:100010000C9465000C9465000C9465000C946500CC
:100020000C9465000C9465000C9465000C946500BC
:100030000C9465000C9465000C9465000C946500AC
:100040000C9465000C9465000C9465000C9465009C
:100050000C9465000C9465000C9465000C9465008C
:100060000C9465000C9465000C9465000C9465007C
:100070000C9465000C9465000C9465000C9465006C
:100080000C9465000C9465000C94650011241FBE4F
:10009000CFEFD0E4DEBFCDBF11E0A0E0B1E0E4E8F7
:1000A000F8E000E00BBF02C007900D92AE32B1073E
:1000B000D9F721E0AEE2B1E001C01D92A533B2074D
:1000C000E1F70E947A020C9440040C940000CF9354
:1000D000DF9300D01F92CDB7DEB789837B836A831D
:1000E00089818A3031F48A819B81BC018DE00E9434
:1000F000670080EC90E0FC018081882F90E08072A6
:100100009927892BB1F386EC90E02981FC012083AB
:1001100080E090E00F900F900F90DF91CF910895C5
:100120000F931F93CF93DF9300D000D0CDB7DEB7EE
:1001300069837A838B839C8380912F019091300116
:10014000A0913101B09132019C01AD0169817A81A8
:100150008B819C810E94AC02882309F477C020E047
:1001600030E0A90169817A818B819C810E94AC0277
:10017000882351F481E990E021E930E0F901208100
:100180002870FC01208309C081E990E021E930E07A
:10019000F90120812360FC01208328E539E344E74D
:1001A0005FE369817A818B819C810E94AC02882304
:1001B00044F488E990E02FEF3FEFFC013183208386
:1001C00034C020E034E244EF56E469817A818B81C7
:1001D0009C810E94CE03181634F488E990E0FC015B
:1001E0001182108222C008E910E020E030E040E0F7
:1001F00053E469817A818B819C810E94D303DC0165
:10020000CB019C01AD0160E074E284EF9AE40E94AE
:10021000B102DC01CB01BC01CD010E942303DC0152
:10022000CB010197F8019183808384E990E0FC0180
:100230001182108289819A81AB81BC8180932F01C8
:1002400090933001A0933101B093320100000F90E0
:100250000F900F900F90DF91CF911F910F91089504
:10026000CF93DF93CDB7DEB780E990E020E4FC01C7
:10027000208381E990E02BE0FC01208360E070E0C6
:10028000CB010E9490000000DF91CF910895CF93A1
:10029000DF93CDB7DEB780E990E0FC01108281E901
:1002A00090E0FC0110820000DF91CF910895CF9380
:1002B000DF93CDB7DEB78091330190913401823066
:1002C000910509F460C08330910528F4009759F036
:1002D0000197F9F09EC08330910509F46CC0049732
:1002E00009F481C096C080E290E0FC018081882FF3
:1002F00090E084709927892B39F481E090E0909305
:1003000034018093330185C010923401109233017F
:1003100080C080E290E0FC018081882F90E08170B5
:100320009927892B39F482E090E0909334018093EF
:1003300033016FC080E290E0FC018081882F90E063
:1003400082709927892B39F483E090E090933401EF
:10035000809333015EC080E290E0FC018081882FB1
:1003600090E084709927892B39F484E090E0909391
:100370003401809333014DC081E090E090933401CB
:100380008093330146C080E290E0FC018081882F99
:1003900090E081709927892B39F482E090E0909366
:1003A00034018093330135C081E090E090933401B3
:1003B000809333012EC080E290E0FC018081882F81
:1003C00090E082709927892B39F483E090E0909334
:1003D0003401809333011DC081E090E0909334019B
:1003E0008093330116C080E290E0FC018081882F69
:1003F00090E084709927892B39F484E090E0909301
:1004000034018093330104C01092340110923301FF
:10041000000080913301909134018230910549F1BF
:100420008330910528F4009751F0019761F05EC088
:1004300083309105D9F1049709F455C057C084E081
:1004400080932E0153C00E94300180912E01882F8D
:1004500090E0880F991F880F991F825F9E4FFC01C3
:1004600080819181A281B381BC01CD010E94900065
:100470003DC080912E01873028F480912E018F5F3E
:1004800080932E0180912E01882F90E0880F991F74
:10049000880F991F825F9E4FFC0180819181A2810C
:1004A000B381BC01CD010E94900020C080912E013B
:1004B000882329F080912E01815080932E01809114
:1004C0002E01882F90E0880F991F880F991F825F57
:1004D0009E4FFC0180819181A281B381BC01CD013D
:1004E0000E94900003C00E94470100000000DF91BD
:1004F000CF910895CF93DF93CDB7DEB781E290E03F
:10050000FC01108282E290E02FEFFC01208384E264
:1005100090E02FEFFC01208385E290E0FC01108247
:100520000E94300110923401109233010E94570151
:1005300080912E01882F90E0880F991F880F991FB6
:10054000825F9E4FFC0180819181A281B381BC01B9
:10055000CD010E949000EACF0E94590308F481E087
:1005600008950E94C5020C9494030E948D0358F0D4
:100570000E94860340F029F45F3F29F00C947D032C
:1005800051110C94C8030C9483030E94A50368F3D3
:100590009923B1F3552391F3951B550BBB27AA273C
:1005A00062177307840738F09F5F5F4F220F331F76
:1005B000441FAA1FA9F335D00E2E3AF0E0E832D03E
:1005C00091505040E695001CCAF72BD0FE2F29D041
:1005D000660F771F881FBB1F261737074807AB0713
:1005E000B0E809F0BB0B802DBF01FF2793585F4F88
:1005F0003AF09E3F510578F00C947D030C94C803AB
:100600005F3FE4F3983ED4F3869577956795B79569
:10061000F7959F5FC9F7880F911D9695879597F974
:100620000895E1E0660F771F881FBB1F62177307ED
:100630008407BA0720F0621B730B840BBA0BEE1F02
:1006400088F7E09508950E942A036894B1110C94EC
:10065000C80308950E94AD0388F09F5798F0B92F02
:100660009927B751B0F0E1F0660F771F881F991FE7
:100670001AF0BA95C9F714C0B13091F00E94C703BF
:10068000B1E008950C94C703672F782F8827B85FCF
:1006900039F0B93FCCF3869577956795B395D9F73F
:1006A0003EF490958095709561957F4F8F4F9F4F49
:1006B0000895990F0008550FAA0BE0E8FEEF1616F3
:1006C0001706E807F907C0F012161306E407F50746
:1006D00098F0621B730B840B950B39F40A2661F0BA
:1006E000232B242B252B21F408950A2609F4A1405D
:1006F000A6958FEF811D811D089597F99F6780E86A
:1007000070E060E008959FEF80EC089500240A9463
:100710001616170618060906089500240A941216DC
:100720001306140605060895092E0394000C11F40F
:10073000882352F0BB0F40F4BF2B11F460FF04C0BC
:100740006F5F7F4F8F4F9F4F089557FD9058440F15
:10075000551F59F05F3F71F04795880F97FB991F20
:1007600061F09F3F79F087950895121613061406DD
:10077000551FF2CF4695F1DF08C01616170618066A
:10078000991FF1CF86957105610508940895E89445
:10079000BB2766277727CB0197F908950E94590355
:1007A00008F48FEF08950E94E6030C9494030E94CE
:1007B000860338F00E948D0320F0952311F00C94ED
:1007C0007D030C94830311240C94C8030E94A50399
:1007D00070F3959FC1F3950F50E0551F629FF00194
:1007E000729FBB27F00DB11D639FAA27F00DB11DAD
:1007F000AA1F649F6627B00DA11D661F829F222736
:10080000B00DA11D621F739FB00DA11D621F839FBC
:10081000A00D611D221F749F3327A00D611D231F92
:10082000849F600D211D822F762F6A2F11249F57E0
:1008300050409AF0F1F088234AF0EE0FFF1FBB1FE3
:10084000661F771F881F91505040A9F79E3F5105A2
:1008500080F00C947D030C94C8035F3FE4F3983E52
:10086000D4F3869577956795B795F795E7959F5F4C
:10087000C1F7FE2B880F911D9695879597F90895DE
:04088000F894FFCF1A
:100884000000000200000000670000000000A4D087
:1008940082437BD49243ECD1A443719DAE430000C8
:0E08A400C4430000DC43A4F0F64300D002443D
:00000001FF
