:100000000C9454000C9473000C9473000C947300C3
:100010000C9473000C9473000C9473000C94730094
:100020000C9473000C9473000C9473000C94730084
:100030000C9473000C94EC000C9473000C947300FB
:100040000C9473000C9473000C9473000C94730064
:100050000C9473000C9473000C9473000C94730054
:100060000C9473000C9473000C9473000C94730044
:100070000C9473000C9473000C9473000C94730034
:100080000C9473000C9473000C9473005D02630273
:100090007D02BD02D702F1021703A00348034C03FF
:1000A00060037D039A03A00311241FBECFEFD0E4A9
:1000B000DEBFCDBF11E0A0E0B1E0E4EEFAE000E089
:1000C0000BBF02C007900D92A233B107D9F721E010
:1000D000A2E3B1E001C01D92AE33B207E1F70E9486
:1000E000A5030C9470050C940000CF93DF9300D00F
:1000F0001F92CDB7DEB789837B836A8389818A307B
:1001000031F48A819B81BC018DE00E94750080ECF6
:1001100090E0FC018081882F90E080729927892BE4
:10012000B1F386EC90E02981FC01208380E090E02F
:100130000F900F900F90DF91CF910895CF93DF93A1
:10014000CDB7DEB781E890E02BE0FC01208388E8A2
:1001500090E02DE730E0FC01318320838FE690E0D2
:1001600022E0FC01208384E890E0FC0111821082EF
:1001700080910E0190910F01A0911001B091110199
:100180008093330190933401A0933501B0933601ED
:100190008FE590E02FE530E0F90120812068FC0137
:1001A00020830000DF91CF910895CF93DF93CDB7E7
:1001B000DEB781E890E0FC0110820000DF91CF9172
:1001C0000895CF93DF93CDB7DEB781E080933201FE
:1001D0000000DF91CF9108951F920F9200905F0071
:1001E0000F92112400905B000F922F933F934F9337
:1001F0005F936F937F938F939F93AF93BF93EF938F
:10020000FF93CF93DF93CDB7DEB780913301909109
:100210003401A0913501B09136010197A109B109CE
:100220008093330190933401A0933501B09336014C
:100230008091330190913401A0913501B091360144
:10024000892B8A2B8B2B91F40E94E10080910E0167
:1002500090910F01A0911001B09111018093330191
:1002600090933401A0933501B09336010000DF91E3
:10027000CF91FF91EF91BF91AF919F918F917F911E
:100280006F915F914F913F912F910F9000925B0082
:100290000F9000925F000F901F901895CF93DF93FF
:1002A00000D000D0CDB7DEB769837A838B839C837F
:1002B00089819A81AB81BC8180930E0190930F015B
:1002C000A0931001B093110180910E0190910F0144
:1002D000A0911001B09111018093330190933401EA
:1002E000A0933501B093360100000F900F900F904E
:1002F0000F90DF91CF9108950F931F93CF93DF93CA
:1003000000D000D0CDB7DEB769837A838B839C831E
:100310008091380190913901A0913A01B0913B014F
:100320009C01AD0169817A818B819C810E94DC03F3
:10033000882309F477C020E030E0A90169817A813F
:100340008B819C810E94DC03882351F481E990E039
:1003500021E930E0F90120812870FC01208309C0E7
:1003600081E990E021E930E0F90120812360FC017E
:10037000208328E539E344E75FE369817A818B8153
:100380009C810E94DC03882344F488E990E02FEFED
:100390003FEFFC013183208334C020E034E244EF9E
:1003A00056E469817A818B819C810E94FE04181633
:1003B00034F488E990E0FC011182108222C008E93F
:1003C00010E020E030E040E053E469817A818B81E5
:1003D0009C810E940305DC01CB019C01AD0160E022
:1003E00074E284EF9AE40E94E103DC01CB01BC01DA
:1003F000CD010E945304DC01CB010197F8019183E8
:10040000808384E990E0FC011182108289819A81C5
:10041000AB81BC818093380190933901A0933A015C
:10042000B0933B0100000F900F900F900F90DF9161
:10043000CF911F910F910895CF93DF93CDB7DEB782
:1004400080E990E020E4FC01208381E990E02BE04A
:10045000FC01208360E070E0CB010E947C01000081
:10046000DF91CF910895CF93DF93CDB7DEB780E9C9
:1004700090E0FC01108281E990E0FC011082000014
:10048000DF91CF910895CF93DF93CDB7DEB7809101
:100490003C0190913D01CC01A0E0B0E040E050E093
:1004A00026E030E0841B950B2817390708F4DAC0E2
:1004B0008A5B9F4FFC010C94D30381E090E0909302
:1004C0003D0180933C0180E290E0FC018081882F17
:1004D00090E08095909587709927049739F482E091
:1004E00090E090933D0180933C01BCC081E090E09E
:1004F00090933D0180933C01B5C080E290E0FC0107
:100500008081882F90E0809590958770992701973A
:1005100039F483E090E090933D0180933C01A2C0C8
:1005200080E290E0FC018081882F90E0809590959A
:1005300087709927029739F484E090E090933D0109
:1005400080933C018FC080E290E0FC018081882F85
:1005500090E08095909587709927049739F485E00D
:1005600090E090933D0180933C017CC082E090E05C
:1005700090933D0180933C0175C080E290E0FC01C6
:100580008081882F90E080959095877099270197BA
:1005900039F486E090E090933D0180933C0162C085
:1005A00082E090E090933D0180933C015BC080E24B
:1005B00090E0FC018081882F90E080959095877075
:1005C0009927029739F486E090E090933D0180935B
:1005D0003C0148C082E090E090933D0180933C0153
:1005E00041C080E290E0FC018081882F90E08095FE
:1005F000909587709927049739F485E090E090935F
:100600003D0180933C012DC080E290E0FC0180819F
:10061000882F90E08095909587709927892B09F510
:1006200081E090E090933D0180933C011AC080E20C
:1006300090E0FC018081882F90E0809590958770F4
:100640009927892B39F482E090E090933D018093C3
:100650003C0108C086E090E090933D0180933C010E
:1006600001C0000080913C0190913D01CC01A0E0CF
:10067000B0E040E050E026E030E0841B950B281706
:10068000390708F45EC0835B9F4FFC010C94D303D1
:1006900081E08093370155C080913701882F90E029
:1006A000880F991F880F991F8E5E9E4FFC018081D5
:1006B0009181A281B381BC01CD010E947C0141C026
:1006C00080913701873028F4809137018F5F8093C4
:1006D000370180913701882F90E0880F991F880F8C
:1006E000991F8E5E9E4FFC0180819181A281B38112
:1006F000BC01CD010E947C0124C080913701882378
:1007000029F0809137018150809337018091370122
:10071000882F90E0880F991F880F991F8E5E9E4F3B
:10072000FC0180819181A281B381BC01CD010E9435
:100730007C0107C060E070E0CB010E947C0101C039
:1007400000000000DF91CF910895CF93DF93CDB7E4
:10075000DEB781E290E0FC01108282E290E02FEFB0
:10076000FC01208384E290E02FEFFC01208385E2EE
:1007700090E0FC0110820E941C026CE271E080E0BB
:1007800090E00E944E010E949E0010923D01109246
:100790003C010E9443020000809132018823E1F372
:1007A00010923201F6CFEE0FFF1F0024001C0BBE8B
:1007B0000790F691E02D09940E94890408F481E0E5
:1007C00008950E94F5030C94C4040E94BD0458F0DF
:1007D0000E94B60440F029F45F3F29F00C94AD0468
:1007E00051110C94F8040C94B3040E94D50468F3DE
:1007F0009923B1F3552391F3951B550BBB27AA27DA
:1008000062177307840738F09F5F5F4F220F331F13
:10081000441FAA1FA9F335D00E2E3AF0E0E832D0DB
:1008200091505040E695001CCAF72BD0FE2F29D0DE
:10083000660F771F881FBB1F261737074807AB07B0
:10084000B0E809F0BB0B802DBF01FF2793585F4F25
:100850003AF09E3F510578F00C94AD040C94F804E6
:100860005F3FE4F3983ED4F3869577956795B79507
:10087000F7959F5FC9F7880F911D9695879597F912
:100880000895E1E0660F771F881FBB1F621773078B
:100890008407BA0720F0621B730B840BBA0BEE1FA0
:1008A00088F7E09508950E945A046894B1110C9459
:1008B000F80408950E94DD0488F09F5798F0B92F3E
:1008C0009927B751B0F0E1F0660F771F881F991F85
:1008D0001AF0BA95C9F714C0B13091F00E94F7042C
:1008E000B1E008950C94F704672F782F8827B85F3C
:1008F00039F0B93FCCF3869577956795B395D9F7DD
:100900003EF490958095709561957F4F8F4F9F4FE6
:100910000895990F0008550FAA0BE0E8FEEF161690
:100920001706E807F907C0F012161306E407F507E3
:1009300098F0621B730B840B950B39F40A2661F057
:10094000232B242B252B21F408950A2609F4A140FA
:10095000A6958FEF811D811D089597F99F6780E807
:1009600070E060E008959FEF80EC089500240A9401
:100970001616170618060906089500240A9412167A
:100980001306140605060895092E0394000C11F4AD
:10099000882352F0BB0F40F4BF2B11F460FF04C05A
:1009A0006F5F7F4F8F4F9F4F089557FD9058440FB3
:1009B000551F59F05F3F71F04795880F97FB991FBE
:1009C00061F09F3F79F0879508951216130614067B
:1009D000551FF2CF4695F1DF08C016161706180608
:1009E000991FF1CF86957105610508940895E894E3
:1009F000BB2766277727CB0197F908950E948904C2
:100A000008F48FEF08950E9416050C94C4040E9408
:100A1000B60438F00E94BD0420F0952311F00C9428
:100A2000AD040C94B30411240C94F8040E94D50472
:100A300070F3959FC1F3950F50E0551F629FF00131
:100A4000729FBB27F00DB11D639FAA27F00DB11D4A
:100A5000AA1F649F6627B00DA11D661F829F2227D3
:100A6000B00DA11D621F739FB00DA11D621F839F5A
:100A7000A00D611D221F749F3327A00D611D231F30
:100A8000849F600D211D822F762F6A2F11249F577E
:100A900050409AF0F1F088234AF0EE0FFF1FBB1F81
:100AA000661F771F881F91505040A9F79E3F510540
:100AB00080F00C94AD040C94F8045F3FE4F3983E8E
:100AC000D4F3869577956795B795F795E7959F5FEA
:100AD000C1F7FE2B880F911D9695879597F908957C
:040AE000F894FFCFB8
:100AE400000000020000000075000000000001008A
:100AF4000000A4D082437BD49243ECD1A443719DE3
:100B0400AE430000C4430000DC43A4F0F64300D02D
:020B1400024499
:00000001FF
